{
	"Week20-Day2-Activity5.sol": {
		"TradeController": {
			"abi": [
				{
					"constant": true,
					"inputs": [],
					"name": "tradeType",
					"outputs": [
						{
							"name": "",
							"type": "string"
						}
					],
					"payable": false,
					"stateMutability": "view",
					"type": "function"
				},
				{
					"constant": true,
					"inputs": [],
					"name": "previousPrice",
					"outputs": [
						{
							"name": "",
							"type": "uint256"
						}
					],
					"payable": false,
					"stateMutability": "view",
					"type": "function"
				},
				{
					"constant": false,
					"inputs": [
						{
							"name": "currentPrice",
							"type": "uint256"
						},
						{
							"name": "buyAnyway",
							"type": "bool"
						}
					],
					"name": "makeTrade",
					"outputs": [],
					"payable": false,
					"stateMutability": "nonpayable",
					"type": "function"
				},
				{
					"payable": true,
					"stateMutability": "payable",
					"type": "fallback"
				}
			],
			"devdoc": {
				"methods": {}
			},
			"evm": {
				"assembly": "    /* \"Week20-Day2-Activity5.sol\":3162:3697  contract TradeController {... */\n  mstore(0x40, 0x80)\n  callvalue\n    /* \"--CODEGEN--\":8:17   */\n  dup1\n    /* \"--CODEGEN--\":5:7   */\n  iszero\n  tag_1\n  jumpi\n    /* \"--CODEGEN--\":30:31   */\n  0x0\n    /* \"--CODEGEN--\":27:28   */\n  dup1\n    /* \"--CODEGEN--\":20:32   */\n  revert\n    /* \"--CODEGEN--\":5:7   */\ntag_1:\n    /* \"Week20-Day2-Activity5.sol\":3162:3697  contract TradeController {... */\n  pop\n  dataSize(sub_0)\n  dup1\n  dataOffset(sub_0)\n  0x0\n  codecopy\n  0x0\n  return\nstop\n\nsub_0: assembly {\n        /* \"Week20-Day2-Activity5.sol\":3162:3697  contract TradeController {... */\n      mstore(0x40, 0x80)\n      jumpi(tag_1, lt(calldatasize, 0x4))\n      calldataload(0x0)\n      0x100000000000000000000000000000000000000000000000000000000\n      swap1\n      div\n      0xffffffff\n      and\n      dup1\n      0x20db38ed\n      eq\n      tag_2\n      jumpi\n      dup1\n      0x914e245a\n      eq\n      tag_3\n      jumpi\n      dup1\n      0x99418ee8\n      eq\n      tag_4\n      jumpi\n    tag_1:\n      stop\n        /* \"Week20-Day2-Activity5.sol\":3224:3247  string public tradeType */\n    tag_2:\n      callvalue\n        /* \"--CODEGEN--\":8:17   */\n      dup1\n        /* \"--CODEGEN--\":5:7   */\n      iszero\n      tag_7\n      jumpi\n        /* \"--CODEGEN--\":30:31   */\n      0x0\n        /* \"--CODEGEN--\":27:28   */\n      dup1\n        /* \"--CODEGEN--\":20:32   */\n      revert\n        /* \"--CODEGEN--\":5:7   */\n    tag_7:\n        /* \"Week20-Day2-Activity5.sol\":3224:3247  string public tradeType */\n      pop\n      tag_8\n      jump(tag_9)\n    tag_8:\n      mload(0x40)\n      dup1\n      dup1\n      0x20\n      add\n      dup3\n      dup2\n      sub\n      dup3\n      mstore\n      dup4\n      dup2\n      dup2\n      mload\n      dup2\n      mstore\n      0x20\n      add\n      swap2\n      pop\n      dup1\n      mload\n      swap1\n      0x20\n      add\n      swap1\n      dup1\n      dup4\n      dup4\n        /* \"--CODEGEN--\":23:24   */\n      0x0\n        /* \"--CODEGEN--\":8:108   */\n    tag_10:\n        /* \"--CODEGEN--\":33:36   */\n      dup4\n        /* \"--CODEGEN--\":30:31   */\n      dup2\n        /* \"--CODEGEN--\":27:37   */\n      lt\n        /* \"--CODEGEN--\":8:108   */\n      iszero\n      tag_11\n      jumpi\n        /* \"--CODEGEN--\":99:100   */\n      dup1\n        /* \"--CODEGEN--\":94:97   */\n      dup3\n        /* \"--CODEGEN--\":90:101   */\n      add\n        /* \"--CODEGEN--\":84:102   */\n      mload\n        /* \"--CODEGEN--\":80:81   */\n      dup2\n        /* \"--CODEGEN--\":75:78   */\n      dup5\n        /* \"--CODEGEN--\":71:82   */\n      add\n        /* \"--CODEGEN--\":64:103   */\n      mstore\n        /* \"--CODEGEN--\":52:54   */\n      0x20\n        /* \"--CODEGEN--\":49:50   */\n      dup2\n        /* \"--CODEGEN--\":45:55   */\n      add\n        /* \"--CODEGEN--\":40:55   */\n      swap1\n      pop\n        /* \"--CODEGEN--\":8:108   */\n      jump(tag_10)\n    tag_11:\n        /* \"--CODEGEN--\":12:26   */\n      pop\n        /* \"Week20-Day2-Activity5.sol\":3224:3247  string public tradeType */\n      pop\n      pop\n      pop\n      swap1\n      pop\n      swap1\n      dup2\n      add\n      swap1\n      0x1f\n      and\n      dup1\n      iszero\n      tag_13\n      jumpi\n      dup1\n      dup3\n      sub\n      dup1\n      mload\n      0x1\n      dup4\n      0x20\n      sub\n      0x100\n      exp\n      sub\n      not\n      and\n      dup2\n      mstore\n      0x20\n      add\n      swap2\n      pop\n    tag_13:\n      pop\n      swap3\n      pop\n      pop\n      pop\n      mload(0x40)\n      dup1\n      swap2\n      sub\n      swap1\n      return\n        /* \"Week20-Day2-Activity5.sol\":3193:3218  uint public previousPrice */\n    tag_3:\n      callvalue\n        /* \"--CODEGEN--\":8:17   */\n      dup1\n        /* \"--CODEGEN--\":5:7   */\n      iszero\n      tag_14\n      jumpi\n        /* \"--CODEGEN--\":30:31   */\n      0x0\n        /* \"--CODEGEN--\":27:28   */\n      dup1\n        /* \"--CODEGEN--\":20:32   */\n      revert\n        /* \"--CODEGEN--\":5:7   */\n    tag_14:\n        /* \"Week20-Day2-Activity5.sol\":3193:3218  uint public previousPrice */\n      pop\n      tag_15\n      jump(tag_16)\n    tag_15:\n      mload(0x40)\n      dup1\n      dup3\n      dup2\n      mstore\n      0x20\n      add\n      swap2\n      pop\n      pop\n      mload(0x40)\n      dup1\n      swap2\n      sub\n      swap1\n      return\n        /* \"Week20-Day2-Activity5.sol\":3253:3660  function makeTrade(uint currentPrice, bool buyAnyway) public{... */\n    tag_4:\n      callvalue\n        /* \"--CODEGEN--\":8:17   */\n      dup1\n        /* \"--CODEGEN--\":5:7   */\n      iszero\n      tag_17\n      jumpi\n        /* \"--CODEGEN--\":30:31   */\n      0x0\n        /* \"--CODEGEN--\":27:28   */\n      dup1\n        /* \"--CODEGEN--\":20:32   */\n      revert\n        /* \"--CODEGEN--\":5:7   */\n    tag_17:\n        /* \"Week20-Day2-Activity5.sol\":3253:3660  function makeTrade(uint currentPrice, bool buyAnyway) public{... */\n      pop\n      tag_18\n      0x4\n      dup1\n      calldatasize\n      sub\n        /* \"--CODEGEN--\":13:15   */\n      0x40\n        /* \"--CODEGEN--\":8:11   */\n      dup2\n        /* \"--CODEGEN--\":5:16   */\n      lt\n        /* \"--CODEGEN--\":2:4   */\n      iszero\n      tag_19\n      jumpi\n        /* \"--CODEGEN--\":29:30   */\n      0x0\n        /* \"--CODEGEN--\":26:27   */\n      dup1\n        /* \"--CODEGEN--\":19:31   */\n      revert\n        /* \"--CODEGEN--\":2:4   */\n    tag_19:\n        /* \"Week20-Day2-Activity5.sol\":3253:3660  function makeTrade(uint currentPrice, bool buyAnyway) public{... */\n      dup2\n      add\n      swap1\n      dup1\n      dup1\n      calldataload\n      swap1\n      0x20\n      add\n      swap1\n      swap3\n      swap2\n      swap1\n      dup1\n      calldataload\n      iszero\n      iszero\n      swap1\n      0x20\n      add\n      swap1\n      swap3\n      swap2\n      swap1\n      pop\n      pop\n      pop\n      jump(tag_20)\n    tag_18:\n      stop\n        /* \"Week20-Day2-Activity5.sol\":3224:3247  string public tradeType */\n    tag_9:\n      0x1\n      dup1\n      sload\n      0x1\n      dup2\n      0x1\n      and\n      iszero\n      0x100\n      mul\n      sub\n      and\n      0x2\n      swap1\n      div\n      dup1\n      0x1f\n      add\n      0x20\n      dup1\n      swap2\n      div\n      mul\n      0x20\n      add\n      mload(0x40)\n      swap1\n      dup2\n      add\n      0x40\n      mstore\n      dup1\n      swap3\n      swap2\n      swap1\n      dup2\n      dup2\n      mstore\n      0x20\n      add\n      dup3\n      dup1\n      sload\n      0x1\n      dup2\n      0x1\n      and\n      iszero\n      0x100\n      mul\n      sub\n      and\n      0x2\n      swap1\n      div\n      dup1\n      iszero\n      tag_21\n      jumpi\n      dup1\n      0x1f\n      lt\n      tag_22\n      jumpi\n      0x100\n      dup1\n      dup4\n      sload\n      div\n      mul\n      dup4\n      mstore\n      swap2\n      0x20\n      add\n      swap2\n      jump(tag_21)\n    tag_22:\n      dup3\n      add\n      swap2\n      swap1\n      0x0\n      mstore\n      keccak256(0x0, 0x20)\n      swap1\n    tag_23:\n      dup2\n      sload\n      dup2\n      mstore\n      swap1\n      0x1\n      add\n      swap1\n      0x20\n      add\n      dup1\n      dup4\n      gt\n      tag_23\n      jumpi\n      dup3\n      swap1\n      sub\n      0x1f\n      and\n      dup3\n      add\n      swap2\n    tag_21:\n      pop\n      pop\n      pop\n      pop\n      pop\n      dup2\n      jump\t// out\n        /* \"Week20-Day2-Activity5.sol\":3193:3218  uint public previousPrice */\n    tag_16:\n      sload(0x0)\n      dup2\n      jump\t// out\n        /* \"Week20-Day2-Activity5.sol\":3253:3660  function makeTrade(uint currentPrice, bool buyAnyway) public{... */\n    tag_20:\n        /* \"Week20-Day2-Activity5.sol\":3342:3355  previousPrice */\n      sload(0x0)\n        /* \"Week20-Day2-Activity5.sol\":3327:3339  currentPrice */\n      dup3\n        /* \"Week20-Day2-Activity5.sol\":3327:3355  currentPrice < previousPrice */\n      lt\n        /* \"Week20-Day2-Activity5.sol\":3327:3368  currentPrice < previousPrice || buyAnyway */\n      dup1\n      tag_25\n      jumpi\n      pop\n        /* \"Week20-Day2-Activity5.sol\":3359:3368  buyAnyway */\n      dup1\n        /* \"Week20-Day2-Activity5.sol\":3327:3368  currentPrice < previousPrice || buyAnyway */\n    tag_25:\n        /* \"Week20-Day2-Activity5.sol\":3323:3654  if (currentPrice < previousPrice || buyAnyway){... */\n      iszero\n      tag_26\n      jumpi\n        /* \"Week20-Day2-Activity5.sol\":3383:3400  tradeType = \"Buy\" */\n      0x40\n      dup1\n      mload\n      swap1\n      dup2\n      add\n      0x40\n      mstore\n      dup1\n      0x3\n      dup2\n      mstore\n      0x20\n      add\n      0x4275790000000000000000000000000000000000000000000000000000000000\n      dup2\n      mstore\n      pop\n        /* \"Week20-Day2-Activity5.sol\":3383:3392  tradeType */\n      0x1\n        /* \"Week20-Day2-Activity5.sol\":3383:3400  tradeType = \"Buy\" */\n      swap1\n      dup1\n      mload\n      swap1\n      0x20\n      add\n      swap1\n      tag_27\n      swap3\n      swap2\n      swap1\n      jump\t// in(tag_28)\n    tag_27:\n      pop\n        /* \"Week20-Day2-Activity5.sol\":3430:3442  currentPrice */\n      dup2\n        /* \"Week20-Day2-Activity5.sol\":3414:3427  previousPrice */\n      0x0\n        /* \"Week20-Day2-Activity5.sol\":3414:3442  previousPrice = currentPrice */\n      dup2\n      swap1\n      sstore\n      pop\n        /* \"Week20-Day2-Activity5.sol\":3323:3654  if (currentPrice < previousPrice || buyAnyway){... */\n      jump(tag_29)\n    tag_26:\n        /* \"Week20-Day2-Activity5.sol\":3485:3498  previousPrice */\n      sload(0x0)\n        /* \"Week20-Day2-Activity5.sol\":3470:3482  currentPrice */\n      dup3\n        /* \"Week20-Day2-Activity5.sol\":3470:3498  currentPrice > previousPrice */\n      gt\n        /* \"Week20-Day2-Activity5.sol\":3470:3511  currentPrice > previousPrice || buyAnyway */\n      dup1\n      tag_30\n      jumpi\n      pop\n        /* \"Week20-Day2-Activity5.sol\":3502:3511  buyAnyway */\n      dup1\n        /* \"Week20-Day2-Activity5.sol\":3470:3511  currentPrice > previousPrice || buyAnyway */\n    tag_30:\n        /* \"Week20-Day2-Activity5.sol\":3467:3654  if(currentPrice > previousPrice || buyAnyway){... */\n      iszero\n      tag_31\n      jumpi\n        /* \"Week20-Day2-Activity5.sol\":3526:3544  tradeType = \"Sell\" */\n      0x40\n      dup1\n      mload\n      swap1\n      dup2\n      add\n      0x40\n      mstore\n      dup1\n      0x4\n      dup2\n      mstore\n      0x20\n      add\n      0x53656c6c00000000000000000000000000000000000000000000000000000000\n      dup2\n      mstore\n      pop\n        /* \"Week20-Day2-Activity5.sol\":3526:3535  tradeType */\n      0x1\n        /* \"Week20-Day2-Activity5.sol\":3526:3544  tradeType = \"Sell\" */\n      swap1\n      dup1\n      mload\n      swap1\n      0x20\n      add\n      swap1\n      tag_32\n      swap3\n      swap2\n      swap1\n      jump\t// in(tag_28)\n    tag_32:\n      pop\n        /* \"Week20-Day2-Activity5.sol\":3574:3586  currentPrice */\n      dup2\n        /* \"Week20-Day2-Activity5.sol\":3558:3571  previousPrice */\n      0x0\n        /* \"Week20-Day2-Activity5.sol\":3558:3586  previousPrice = currentPrice */\n      dup2\n      swap1\n      sstore\n      pop\n        /* \"Week20-Day2-Activity5.sol\":3467:3654  if(currentPrice > previousPrice || buyAnyway){... */\n      jump(tag_33)\n    tag_31:\n        /* \"Week20-Day2-Activity5.sol\":3625:3643  tradeType = \"Hold\" */\n      0x40\n      dup1\n      mload\n      swap1\n      dup2\n      add\n      0x40\n      mstore\n      dup1\n      0x4\n      dup2\n      mstore\n      0x20\n      add\n      0x486f6c6400000000000000000000000000000000000000000000000000000000\n      dup2\n      mstore\n      pop\n        /* \"Week20-Day2-Activity5.sol\":3625:3634  tradeType */\n      0x1\n        /* \"Week20-Day2-Activity5.sol\":3625:3643  tradeType = \"Hold\" */\n      swap1\n      dup1\n      mload\n      swap1\n      0x20\n      add\n      swap1\n      tag_34\n      swap3\n      swap2\n      swap1\n      jump\t// in(tag_28)\n    tag_34:\n      pop\n        /* \"Week20-Day2-Activity5.sol\":3467:3654  if(currentPrice > previousPrice || buyAnyway){... */\n    tag_33:\n        /* \"Week20-Day2-Activity5.sol\":3323:3654  if (currentPrice < previousPrice || buyAnyway){... */\n    tag_29:\n        /* \"Week20-Day2-Activity5.sol\":3253:3660  function makeTrade(uint currentPrice, bool buyAnyway) public{... */\n      pop\n      pop\n      jump\t// out\n        /* \"Week20-Day2-Activity5.sol\":3162:3697  contract TradeController {... */\n    tag_28:\n      dup3\n      dup1\n      sload\n      0x1\n      dup2\n      0x1\n      and\n      iszero\n      0x100\n      mul\n      sub\n      and\n      0x2\n      swap1\n      div\n      swap1\n      0x0\n      mstore\n      keccak256(0x0, 0x20)\n      swap1\n      0x1f\n      add\n      0x20\n      swap1\n      div\n      dup2\n      add\n      swap3\n      dup3\n      0x1f\n      lt\n      tag_36\n      jumpi\n      dup1\n      mload\n      not(0xff)\n      and\n      dup4\n      dup1\n      add\n      or\n      dup6\n      sstore\n      jump(tag_35)\n    tag_36:\n      dup3\n      dup1\n      add\n      0x1\n      add\n      dup6\n      sstore\n      dup3\n      iszero\n      tag_35\n      jumpi\n      swap2\n      dup3\n      add\n    tag_37:\n      dup3\n      dup2\n      gt\n      iszero\n      tag_38\n      jumpi\n      dup3\n      mload\n      dup3\n      sstore\n      swap2\n      0x20\n      add\n      swap2\n      swap1\n      0x1\n      add\n      swap1\n      jump(tag_37)\n    tag_38:\n    tag_35:\n      pop\n      swap1\n      pop\n      tag_39\n      swap2\n      swap1\n      jump\t// in(tag_40)\n    tag_39:\n      pop\n      swap1\n      jump\t// out\n    tag_40:\n      tag_41\n      swap2\n      swap1\n    tag_42:\n      dup1\n      dup3\n      gt\n      iszero\n      tag_43\n      jumpi\n      0x0\n      dup2\n      0x0\n      swap1\n      sstore\n      pop\n      0x1\n      add\n      jump(tag_42)\n    tag_43:\n      pop\n      swap1\n      jump\n    tag_41:\n      swap1\n      jump\t// out\n\n    auxdata: 0xa165627a7a723058201a4b86d5188491e26d0350cab38831beff2e1d45a76c838c551e8e4393845d2d0029\n}\n",
				"bytecode": {
					"linkReferences": {},
					"object": "608060405234801561001057600080fd5b506103f6806100206000396000f3fe608060405260043610610057576000357c0100000000000000000000000000000000000000000000000000000000900463ffffffff16806320db38ed14610059578063914e245a146100e957806399418ee814610114575b005b34801561006557600080fd5b5061006e61015b565b6040518080602001828103825283818151815260200191508051906020019080838360005b838110156100ae578082015181840152602081019050610093565b50505050905090810190601f1680156100db5780820380516001836020036101000a031916815260200191505b509250505060405180910390f35b3480156100f557600080fd5b506100fe6101f9565b6040518082815260200191505060405180910390f35b34801561012057600080fd5b506101596004803603604081101561013757600080fd5b81019080803590602001909291908035151590602001909291905050506101ff565b005b60018054600181600116156101000203166002900480601f0160208091040260200160405190810160405280929190818152602001828054600181600116156101000203166002900480156101f15780601f106101c6576101008083540402835291602001916101f1565b820191906000526020600020905b8154815290600101906020018083116101d457829003601f168201915b505050505081565b60005481565b60005482108061020c5750805b15610269576040805190810160405280600381526020017f42757900000000000000000000000000000000000000000000000000000000008152506001908051906020019061025c929190610325565b5081600081905550610321565b6000548211806102765750805b156102d3576040805190810160405280600481526020017f53656c6c00000000000000000000000000000000000000000000000000000000815250600190805190602001906102c6929190610325565b5081600081905550610320565b6040805190810160405280600481526020017f486f6c64000000000000000000000000000000000000000000000000000000008152506001908051906020019061031e929190610325565b505b5b5050565b828054600181600116156101000203166002900490600052602060002090601f016020900481019282601f1061036657805160ff1916838001178555610394565b82800160010185558215610394579182015b82811115610393578251825591602001919060010190610378565b5b5090506103a191906103a5565b5090565b6103c791905b808211156103c35760008160009055506001016103ab565b5090565b9056fea165627a7a723058201a4b86d5188491e26d0350cab38831beff2e1d45a76c838c551e8e4393845d2d0029",
					"opcodes": "PUSH1 0x80 PUSH1 0x40 MSTORE CALLVALUE DUP1 ISZERO PUSH2 0x10 JUMPI PUSH1 0x0 DUP1 REVERT JUMPDEST POP PUSH2 0x3F6 DUP1 PUSH2 0x20 PUSH1 0x0 CODECOPY PUSH1 0x0 RETURN INVALID PUSH1 0x80 PUSH1 0x40 MSTORE PUSH1 0x4 CALLDATASIZE LT PUSH2 0x57 JUMPI PUSH1 0x0 CALLDATALOAD PUSH29 0x100000000000000000000000000000000000000000000000000000000 SWAP1 DIV PUSH4 0xFFFFFFFF AND DUP1 PUSH4 0x20DB38ED EQ PUSH2 0x59 JUMPI DUP1 PUSH4 0x914E245A EQ PUSH2 0xE9 JUMPI DUP1 PUSH4 0x99418EE8 EQ PUSH2 0x114 JUMPI JUMPDEST STOP JUMPDEST CALLVALUE DUP1 ISZERO PUSH2 0x65 JUMPI PUSH1 0x0 DUP1 REVERT JUMPDEST POP PUSH2 0x6E PUSH2 0x15B JUMP JUMPDEST PUSH1 0x40 MLOAD DUP1 DUP1 PUSH1 0x20 ADD DUP3 DUP2 SUB DUP3 MSTORE DUP4 DUP2 DUP2 MLOAD DUP2 MSTORE PUSH1 0x20 ADD SWAP2 POP DUP1 MLOAD SWAP1 PUSH1 0x20 ADD SWAP1 DUP1 DUP4 DUP4 PUSH1 0x0 JUMPDEST DUP4 DUP2 LT ISZERO PUSH2 0xAE JUMPI DUP1 DUP3 ADD MLOAD DUP2 DUP5 ADD MSTORE PUSH1 0x20 DUP2 ADD SWAP1 POP PUSH2 0x93 JUMP JUMPDEST POP POP POP POP SWAP1 POP SWAP1 DUP2 ADD SWAP1 PUSH1 0x1F AND DUP1 ISZERO PUSH2 0xDB JUMPI DUP1 DUP3 SUB DUP1 MLOAD PUSH1 0x1 DUP4 PUSH1 0x20 SUB PUSH2 0x100 EXP SUB NOT AND DUP2 MSTORE PUSH1 0x20 ADD SWAP2 POP JUMPDEST POP SWAP3 POP POP POP PUSH1 0x40 MLOAD DUP1 SWAP2 SUB SWAP1 RETURN JUMPDEST CALLVALUE DUP1 ISZERO PUSH2 0xF5 JUMPI PUSH1 0x0 DUP1 REVERT JUMPDEST POP PUSH2 0xFE PUSH2 0x1F9 JUMP JUMPDEST PUSH1 0x40 MLOAD DUP1 DUP3 DUP2 MSTORE PUSH1 0x20 ADD SWAP2 POP POP PUSH1 0x40 MLOAD DUP1 SWAP2 SUB SWAP1 RETURN JUMPDEST CALLVALUE DUP1 ISZERO PUSH2 0x120 JUMPI PUSH1 0x0 DUP1 REVERT JUMPDEST POP PUSH2 0x159 PUSH1 0x4 DUP1 CALLDATASIZE SUB PUSH1 0x40 DUP2 LT ISZERO PUSH2 0x137 JUMPI PUSH1 0x0 DUP1 REVERT JUMPDEST DUP2 ADD SWAP1 DUP1 DUP1 CALLDATALOAD SWAP1 PUSH1 0x20 ADD SWAP1 SWAP3 SWAP2 SWAP1 DUP1 CALLDATALOAD ISZERO ISZERO SWAP1 PUSH1 0x20 ADD SWAP1 SWAP3 SWAP2 SWAP1 POP POP POP PUSH2 0x1FF JUMP JUMPDEST STOP JUMPDEST PUSH1 0x1 DUP1 SLOAD PUSH1 0x1 DUP2 PUSH1 0x1 AND ISZERO PUSH2 0x100 MUL SUB AND PUSH1 0x2 SWAP1 DIV DUP1 PUSH1 0x1F ADD PUSH1 0x20 DUP1 SWAP2 DIV MUL PUSH1 0x20 ADD PUSH1 0x40 MLOAD SWAP1 DUP2 ADD PUSH1 0x40 MSTORE DUP1 SWAP3 SWAP2 SWAP1 DUP2 DUP2 MSTORE PUSH1 0x20 ADD DUP3 DUP1 SLOAD PUSH1 0x1 DUP2 PUSH1 0x1 AND ISZERO PUSH2 0x100 MUL SUB AND PUSH1 0x2 SWAP1 DIV DUP1 ISZERO PUSH2 0x1F1 JUMPI DUP1 PUSH1 0x1F LT PUSH2 0x1C6 JUMPI PUSH2 0x100 DUP1 DUP4 SLOAD DIV MUL DUP4 MSTORE SWAP2 PUSH1 0x20 ADD SWAP2 PUSH2 0x1F1 JUMP JUMPDEST DUP3 ADD SWAP2 SWAP1 PUSH1 0x0 MSTORE PUSH1 0x20 PUSH1 0x0 KECCAK256 SWAP1 JUMPDEST DUP2 SLOAD DUP2 MSTORE SWAP1 PUSH1 0x1 ADD SWAP1 PUSH1 0x20 ADD DUP1 DUP4 GT PUSH2 0x1D4 JUMPI DUP3 SWAP1 SUB PUSH1 0x1F AND DUP3 ADD SWAP2 JUMPDEST POP POP POP POP POP DUP2 JUMP JUMPDEST PUSH1 0x0 SLOAD DUP2 JUMP JUMPDEST PUSH1 0x0 SLOAD DUP3 LT DUP1 PUSH2 0x20C JUMPI POP DUP1 JUMPDEST ISZERO PUSH2 0x269 JUMPI PUSH1 0x40 DUP1 MLOAD SWAP1 DUP2 ADD PUSH1 0x40 MSTORE DUP1 PUSH1 0x3 DUP2 MSTORE PUSH1 0x20 ADD PUSH32 0x4275790000000000000000000000000000000000000000000000000000000000 DUP2 MSTORE POP PUSH1 0x1 SWAP1 DUP1 MLOAD SWAP1 PUSH1 0x20 ADD SWAP1 PUSH2 0x25C SWAP3 SWAP2 SWAP1 PUSH2 0x325 JUMP JUMPDEST POP DUP2 PUSH1 0x0 DUP2 SWAP1 SSTORE POP PUSH2 0x321 JUMP JUMPDEST PUSH1 0x0 SLOAD DUP3 GT DUP1 PUSH2 0x276 JUMPI POP DUP1 JUMPDEST ISZERO PUSH2 0x2D3 JUMPI PUSH1 0x40 DUP1 MLOAD SWAP1 DUP2 ADD PUSH1 0x40 MSTORE DUP1 PUSH1 0x4 DUP2 MSTORE PUSH1 0x20 ADD PUSH32 0x53656C6C00000000000000000000000000000000000000000000000000000000 DUP2 MSTORE POP PUSH1 0x1 SWAP1 DUP1 MLOAD SWAP1 PUSH1 0x20 ADD SWAP1 PUSH2 0x2C6 SWAP3 SWAP2 SWAP1 PUSH2 0x325 JUMP JUMPDEST POP DUP2 PUSH1 0x0 DUP2 SWAP1 SSTORE POP PUSH2 0x320 JUMP JUMPDEST PUSH1 0x40 DUP1 MLOAD SWAP1 DUP2 ADD PUSH1 0x40 MSTORE DUP1 PUSH1 0x4 DUP2 MSTORE PUSH1 0x20 ADD PUSH32 0x486F6C6400000000000000000000000000000000000000000000000000000000 DUP2 MSTORE POP PUSH1 0x1 SWAP1 DUP1 MLOAD SWAP1 PUSH1 0x20 ADD SWAP1 PUSH2 0x31E SWAP3 SWAP2 SWAP1 PUSH2 0x325 JUMP JUMPDEST POP JUMPDEST JUMPDEST POP POP JUMP JUMPDEST DUP3 DUP1 SLOAD PUSH1 0x1 DUP2 PUSH1 0x1 AND ISZERO PUSH2 0x100 MUL SUB AND PUSH1 0x2 SWAP1 DIV SWAP1 PUSH1 0x0 MSTORE PUSH1 0x20 PUSH1 0x0 KECCAK256 SWAP1 PUSH1 0x1F ADD PUSH1 0x20 SWAP1 DIV DUP2 ADD SWAP3 DUP3 PUSH1 0x1F LT PUSH2 0x366 JUMPI DUP1 MLOAD PUSH1 0xFF NOT AND DUP4 DUP1 ADD OR DUP6 SSTORE PUSH2 0x394 JUMP JUMPDEST DUP3 DUP1 ADD PUSH1 0x1 ADD DUP6 SSTORE DUP3 ISZERO PUSH2 0x394 JUMPI SWAP2 DUP3 ADD JUMPDEST DUP3 DUP2 GT ISZERO PUSH2 0x393 JUMPI DUP3 MLOAD DUP3 SSTORE SWAP2 PUSH1 0x20 ADD SWAP2 SWAP1 PUSH1 0x1 ADD SWAP1 PUSH2 0x378 JUMP JUMPDEST JUMPDEST POP SWAP1 POP PUSH2 0x3A1 SWAP2 SWAP1 PUSH2 0x3A5 JUMP JUMPDEST POP SWAP1 JUMP JUMPDEST PUSH2 0x3C7 SWAP2 SWAP1 JUMPDEST DUP1 DUP3 GT ISZERO PUSH2 0x3C3 JUMPI PUSH1 0x0 DUP2 PUSH1 0x0 SWAP1 SSTORE POP PUSH1 0x1 ADD PUSH2 0x3AB JUMP JUMPDEST POP SWAP1 JUMP JUMPDEST SWAP1 JUMP INVALID LOG1 PUSH6 0x627A7A723058 KECCAK256 BYTE 0x4b DUP7 0xd5 XOR DUP5 SWAP2 0xe2 PUSH14 0x350CAB38831BEFF2E1D45A76C83 DUP13 SSTORE 0x1e DUP15 NUMBER SWAP4 DUP5 0x5d 0x2d STOP 0x29 "
				},
				"gasEstimates": {
					"creation": {
						"codeDepositCost": "202800",
						"executionCost": "245",
						"totalCost": "203045"
					},
					"external": {
						"": "129",
						"makeTrade(uint256,bool)": "infinite",
						"previousPrice()": "416",
						"tradeType()": "infinite"
					}
				},
				"methodIdentifiers": {
					"makeTrade(uint256,bool)": "99418ee8",
					"previousPrice()": "914e245a",
					"tradeType()": "20db38ed"
				}
			},
			"userdoc": {
				"methods": {}
			}
		}
	}
}