{
	"Week20-Day2-Activity5.sol": {
		"TradeController": {
			"abi": [
				{
					"constant": true,
					"inputs": [],
					"name": "tradeType",
					"outputs": [
						{
							"name": "",
							"type": "string"
						}
					],
					"payable": false,
					"stateMutability": "view",
					"type": "function"
				},
				{
					"constant": false,
					"inputs": [
						{
							"name": "currentPrice",
							"type": "uint256"
						},
						{
							"name": "buyAnyway",
							"type": "bool"
						}
					],
					"name": "makeTrade",
					"outputs": [],
					"payable": false,
					"stateMutability": "nonpayable",
					"type": "function"
				}
			],
			"devdoc": {
				"methods": {}
			},
			"evm": {
				"assembly": "    /* \"Week20-Day2-Activity5.sol\":3162:3655  contract TradeController {... */\n  mstore(0x40, 0x80)\n  callvalue\n    /* \"--CODEGEN--\":8:17   */\n  dup1\n    /* \"--CODEGEN--\":5:7   */\n  iszero\n  tag_1\n  jumpi\n    /* \"--CODEGEN--\":30:31   */\n  0x0\n    /* \"--CODEGEN--\":27:28   */\n  dup1\n    /* \"--CODEGEN--\":20:32   */\n  revert\n    /* \"--CODEGEN--\":5:7   */\ntag_1:\n    /* \"Week20-Day2-Activity5.sol\":3162:3655  contract TradeController {... */\n  pop\n  dataSize(sub_0)\n  dup1\n  dataOffset(sub_0)\n  0x0\n  codecopy\n  0x0\n  return\nstop\n\nsub_0: assembly {\n        /* \"Week20-Day2-Activity5.sol\":3162:3655  contract TradeController {... */\n      mstore(0x40, 0x80)\n      jumpi(tag_1, lt(calldatasize, 0x4))\n      calldataload(0x0)\n      0x100000000000000000000000000000000000000000000000000000000\n      swap1\n      div\n      0xffffffff\n      and\n      dup1\n      0x20db38ed\n      eq\n      tag_2\n      jumpi\n      dup1\n      0x99418ee8\n      eq\n      tag_3\n      jumpi\n    tag_1:\n      0x0\n      dup1\n      revert\n        /* \"Week20-Day2-Activity5.sol\":3217:3240  string public tradeType */\n    tag_2:\n      callvalue\n        /* \"--CODEGEN--\":8:17   */\n      dup1\n        /* \"--CODEGEN--\":5:7   */\n      iszero\n      tag_4\n      jumpi\n        /* \"--CODEGEN--\":30:31   */\n      0x0\n        /* \"--CODEGEN--\":27:28   */\n      dup1\n        /* \"--CODEGEN--\":20:32   */\n      revert\n        /* \"--CODEGEN--\":5:7   */\n    tag_4:\n        /* \"Week20-Day2-Activity5.sol\":3217:3240  string public tradeType */\n      pop\n      tag_5\n      jump(tag_6)\n    tag_5:\n      mload(0x40)\n      dup1\n      dup1\n      0x20\n      add\n      dup3\n      dup2\n      sub\n      dup3\n      mstore\n      dup4\n      dup2\n      dup2\n      mload\n      dup2\n      mstore\n      0x20\n      add\n      swap2\n      pop\n      dup1\n      mload\n      swap1\n      0x20\n      add\n      swap1\n      dup1\n      dup4\n      dup4\n        /* \"--CODEGEN--\":23:24   */\n      0x0\n        /* \"--CODEGEN--\":8:108   */\n    tag_7:\n        /* \"--CODEGEN--\":33:36   */\n      dup4\n        /* \"--CODEGEN--\":30:31   */\n      dup2\n        /* \"--CODEGEN--\":27:37   */\n      lt\n        /* \"--CODEGEN--\":8:108   */\n      iszero\n      tag_8\n      jumpi\n        /* \"--CODEGEN--\":99:100   */\n      dup1\n        /* \"--CODEGEN--\":94:97   */\n      dup3\n        /* \"--CODEGEN--\":90:101   */\n      add\n        /* \"--CODEGEN--\":84:102   */\n      mload\n        /* \"--CODEGEN--\":80:81   */\n      dup2\n        /* \"--CODEGEN--\":75:78   */\n      dup5\n        /* \"--CODEGEN--\":71:82   */\n      add\n        /* \"--CODEGEN--\":64:103   */\n      mstore\n        /* \"--CODEGEN--\":52:54   */\n      0x20\n        /* \"--CODEGEN--\":49:50   */\n      dup2\n        /* \"--CODEGEN--\":45:55   */\n      add\n        /* \"--CODEGEN--\":40:55   */\n      swap1\n      pop\n        /* \"--CODEGEN--\":8:108   */\n      jump(tag_7)\n    tag_8:\n        /* \"--CODEGEN--\":12:26   */\n      pop\n        /* \"Week20-Day2-Activity5.sol\":3217:3240  string public tradeType */\n      pop\n      pop\n      pop\n      swap1\n      pop\n      swap1\n      dup2\n      add\n      swap1\n      0x1f\n      and\n      dup1\n      iszero\n      tag_10\n      jumpi\n      dup1\n      dup3\n      sub\n      dup1\n      mload\n      0x1\n      dup4\n      0x20\n      sub\n      0x100\n      exp\n      sub\n      not\n      and\n      dup2\n      mstore\n      0x20\n      add\n      swap2\n      pop\n    tag_10:\n      pop\n      swap3\n      pop\n      pop\n      pop\n      mload(0x40)\n      dup1\n      swap2\n      sub\n      swap1\n      return\n        /* \"Week20-Day2-Activity5.sol\":3246:3653  function makeTrade(uint currentPrice, bool buyAnyway) public{... */\n    tag_3:\n      callvalue\n        /* \"--CODEGEN--\":8:17   */\n      dup1\n        /* \"--CODEGEN--\":5:7   */\n      iszero\n      tag_11\n      jumpi\n        /* \"--CODEGEN--\":30:31   */\n      0x0\n        /* \"--CODEGEN--\":27:28   */\n      dup1\n        /* \"--CODEGEN--\":20:32   */\n      revert\n        /* \"--CODEGEN--\":5:7   */\n    tag_11:\n        /* \"Week20-Day2-Activity5.sol\":3246:3653  function makeTrade(uint currentPrice, bool buyAnyway) public{... */\n      pop\n      tag_12\n      0x4\n      dup1\n      calldatasize\n      sub\n        /* \"--CODEGEN--\":13:15   */\n      0x40\n        /* \"--CODEGEN--\":8:11   */\n      dup2\n        /* \"--CODEGEN--\":5:16   */\n      lt\n        /* \"--CODEGEN--\":2:4   */\n      iszero\n      tag_13\n      jumpi\n        /* \"--CODEGEN--\":29:30   */\n      0x0\n        /* \"--CODEGEN--\":26:27   */\n      dup1\n        /* \"--CODEGEN--\":19:31   */\n      revert\n        /* \"--CODEGEN--\":2:4   */\n    tag_13:\n        /* \"Week20-Day2-Activity5.sol\":3246:3653  function makeTrade(uint currentPrice, bool buyAnyway) public{... */\n      dup2\n      add\n      swap1\n      dup1\n      dup1\n      calldataload\n      swap1\n      0x20\n      add\n      swap1\n      swap3\n      swap2\n      swap1\n      dup1\n      calldataload\n      iszero\n      iszero\n      swap1\n      0x20\n      add\n      swap1\n      swap3\n      swap2\n      swap1\n      pop\n      pop\n      pop\n      jump(tag_14)\n    tag_12:\n      stop\n        /* \"Week20-Day2-Activity5.sol\":3217:3240  string public tradeType */\n    tag_6:\n      0x1\n      dup1\n      sload\n      0x1\n      dup2\n      0x1\n      and\n      iszero\n      0x100\n      mul\n      sub\n      and\n      0x2\n      swap1\n      div\n      dup1\n      0x1f\n      add\n      0x20\n      dup1\n      swap2\n      div\n      mul\n      0x20\n      add\n      mload(0x40)\n      swap1\n      dup2\n      add\n      0x40\n      mstore\n      dup1\n      swap3\n      swap2\n      swap1\n      dup2\n      dup2\n      mstore\n      0x20\n      add\n      dup3\n      dup1\n      sload\n      0x1\n      dup2\n      0x1\n      and\n      iszero\n      0x100\n      mul\n      sub\n      and\n      0x2\n      swap1\n      div\n      dup1\n      iszero\n      tag_15\n      jumpi\n      dup1\n      0x1f\n      lt\n      tag_16\n      jumpi\n      0x100\n      dup1\n      dup4\n      sload\n      div\n      mul\n      dup4\n      mstore\n      swap2\n      0x20\n      add\n      swap2\n      jump(tag_15)\n    tag_16:\n      dup3\n      add\n      swap2\n      swap1\n      0x0\n      mstore\n      keccak256(0x0, 0x20)\n      swap1\n    tag_17:\n      dup2\n      sload\n      dup2\n      mstore\n      swap1\n      0x1\n      add\n      swap1\n      0x20\n      add\n      dup1\n      dup4\n      gt\n      tag_17\n      jumpi\n      dup3\n      swap1\n      sub\n      0x1f\n      and\n      dup3\n      add\n      swap2\n    tag_15:\n      pop\n      pop\n      pop\n      pop\n      pop\n      dup2\n      jump\t// out\n        /* \"Week20-Day2-Activity5.sol\":3246:3653  function makeTrade(uint currentPrice, bool buyAnyway) public{... */\n    tag_14:\n        /* \"Week20-Day2-Activity5.sol\":3335:3348  previousPrice */\n      sload(0x0)\n        /* \"Week20-Day2-Activity5.sol\":3320:3332  currentPrice */\n      dup3\n        /* \"Week20-Day2-Activity5.sol\":3320:3348  currentPrice < previousPrice */\n      lt\n        /* \"Week20-Day2-Activity5.sol\":3320:3361  currentPrice < previousPrice || buyAnyway */\n      dup1\n      tag_19\n      jumpi\n      pop\n        /* \"Week20-Day2-Activity5.sol\":3352:3361  buyAnyway */\n      dup1\n        /* \"Week20-Day2-Activity5.sol\":3320:3361  currentPrice < previousPrice || buyAnyway */\n    tag_19:\n        /* \"Week20-Day2-Activity5.sol\":3316:3647  if (currentPrice < previousPrice || buyAnyway){... */\n      iszero\n      tag_20\n      jumpi\n        /* \"Week20-Day2-Activity5.sol\":3376:3393  tradeType = \"Buy\" */\n      0x40\n      dup1\n      mload\n      swap1\n      dup2\n      add\n      0x40\n      mstore\n      dup1\n      0x3\n      dup2\n      mstore\n      0x20\n      add\n      0x4275790000000000000000000000000000000000000000000000000000000000\n      dup2\n      mstore\n      pop\n        /* \"Week20-Day2-Activity5.sol\":3376:3385  tradeType */\n      0x1\n        /* \"Week20-Day2-Activity5.sol\":3376:3393  tradeType = \"Buy\" */\n      swap1\n      dup1\n      mload\n      swap1\n      0x20\n      add\n      swap1\n      tag_21\n      swap3\n      swap2\n      swap1\n      jump\t// in(tag_22)\n    tag_21:\n      pop\n        /* \"Week20-Day2-Activity5.sol\":3423:3435  currentPrice */\n      dup2\n        /* \"Week20-Day2-Activity5.sol\":3407:3420  previousPrice */\n      0x0\n        /* \"Week20-Day2-Activity5.sol\":3407:3435  previousPrice = currentPrice */\n      dup2\n      swap1\n      sstore\n      pop\n        /* \"Week20-Day2-Activity5.sol\":3316:3647  if (currentPrice < previousPrice || buyAnyway){... */\n      jump(tag_23)\n    tag_20:\n        /* \"Week20-Day2-Activity5.sol\":3478:3491  previousPrice */\n      sload(0x0)\n        /* \"Week20-Day2-Activity5.sol\":3463:3475  currentPrice */\n      dup3\n        /* \"Week20-Day2-Activity5.sol\":3463:3491  currentPrice > previousPrice */\n      gt\n        /* \"Week20-Day2-Activity5.sol\":3463:3504  currentPrice > previousPrice || buyAnyway */\n      dup1\n      tag_24\n      jumpi\n      pop\n        /* \"Week20-Day2-Activity5.sol\":3495:3504  buyAnyway */\n      dup1\n        /* \"Week20-Day2-Activity5.sol\":3463:3504  currentPrice > previousPrice || buyAnyway */\n    tag_24:\n        /* \"Week20-Day2-Activity5.sol\":3460:3647  if(currentPrice > previousPrice || buyAnyway){... */\n      iszero\n      tag_25\n      jumpi\n        /* \"Week20-Day2-Activity5.sol\":3519:3537  tradeType = \"Sell\" */\n      0x40\n      dup1\n      mload\n      swap1\n      dup2\n      add\n      0x40\n      mstore\n      dup1\n      0x4\n      dup2\n      mstore\n      0x20\n      add\n      0x53656c6c00000000000000000000000000000000000000000000000000000000\n      dup2\n      mstore\n      pop\n        /* \"Week20-Day2-Activity5.sol\":3519:3528  tradeType */\n      0x1\n        /* \"Week20-Day2-Activity5.sol\":3519:3537  tradeType = \"Sell\" */\n      swap1\n      dup1\n      mload\n      swap1\n      0x20\n      add\n      swap1\n      tag_26\n      swap3\n      swap2\n      swap1\n      jump\t// in(tag_22)\n    tag_26:\n      pop\n        /* \"Week20-Day2-Activity5.sol\":3567:3579  currentPrice */\n      dup2\n        /* \"Week20-Day2-Activity5.sol\":3551:3564  previousPrice */\n      0x0\n        /* \"Week20-Day2-Activity5.sol\":3551:3579  previousPrice = currentPrice */\n      dup2\n      swap1\n      sstore\n      pop\n        /* \"Week20-Day2-Activity5.sol\":3460:3647  if(currentPrice > previousPrice || buyAnyway){... */\n      jump(tag_27)\n    tag_25:\n        /* \"Week20-Day2-Activity5.sol\":3618:3636  tradeType = \"Hold\" */\n      0x40\n      dup1\n      mload\n      swap1\n      dup2\n      add\n      0x40\n      mstore\n      dup1\n      0x4\n      dup2\n      mstore\n      0x20\n      add\n      0x486f6c6400000000000000000000000000000000000000000000000000000000\n      dup2\n      mstore\n      pop\n        /* \"Week20-Day2-Activity5.sol\":3618:3627  tradeType */\n      0x1\n        /* \"Week20-Day2-Activity5.sol\":3618:3636  tradeType = \"Hold\" */\n      swap1\n      dup1\n      mload\n      swap1\n      0x20\n      add\n      swap1\n      tag_28\n      swap3\n      swap2\n      swap1\n      jump\t// in(tag_22)\n    tag_28:\n      pop\n        /* \"Week20-Day2-Activity5.sol\":3460:3647  if(currentPrice > previousPrice || buyAnyway){... */\n    tag_27:\n        /* \"Week20-Day2-Activity5.sol\":3316:3647  if (currentPrice < previousPrice || buyAnyway){... */\n    tag_23:\n        /* \"Week20-Day2-Activity5.sol\":3246:3653  function makeTrade(uint currentPrice, bool buyAnyway) public{... */\n      pop\n      pop\n      jump\t// out\n        /* \"Week20-Day2-Activity5.sol\":3162:3655  contract TradeController {... */\n    tag_22:\n      dup3\n      dup1\n      sload\n      0x1\n      dup2\n      0x1\n      and\n      iszero\n      0x100\n      mul\n      sub\n      and\n      0x2\n      swap1\n      div\n      swap1\n      0x0\n      mstore\n      keccak256(0x0, 0x20)\n      swap1\n      0x1f\n      add\n      0x20\n      swap1\n      div\n      dup2\n      add\n      swap3\n      dup3\n      0x1f\n      lt\n      tag_30\n      jumpi\n      dup1\n      mload\n      not(0xff)\n      and\n      dup4\n      dup1\n      add\n      or\n      dup6\n      sstore\n      jump(tag_29)\n    tag_30:\n      dup3\n      dup1\n      add\n      0x1\n      add\n      dup6\n      sstore\n      dup3\n      iszero\n      tag_29\n      jumpi\n      swap2\n      dup3\n      add\n    tag_31:\n      dup3\n      dup2\n      gt\n      iszero\n      tag_32\n      jumpi\n      dup3\n      mload\n      dup3\n      sstore\n      swap2\n      0x20\n      add\n      swap2\n      swap1\n      0x1\n      add\n      swap1\n      jump(tag_31)\n    tag_32:\n    tag_29:\n      pop\n      swap1\n      pop\n      tag_33\n      swap2\n      swap1\n      jump\t// in(tag_34)\n    tag_33:\n      pop\n      swap1\n      jump\t// out\n    tag_34:\n      tag_35\n      swap2\n      swap1\n    tag_36:\n      dup1\n      dup3\n      gt\n      iszero\n      tag_37\n      jumpi\n      0x0\n      dup2\n      0x0\n      swap1\n      sstore\n      pop\n      0x1\n      add\n      jump(tag_36)\n    tag_37:\n      pop\n      swap1\n      jump\n    tag_35:\n      swap1\n      jump\t// out\n\n    auxdata: 0xa165627a7a72305820e2f8680b55691900030d1c01eada7a322067331e5c78e4979d56148dccaacfff0029\n}\n",
				"bytecode": {
					"linkReferences": {},
					"object": "608060405234801561001057600080fd5b506103bd806100206000396000f3fe60806040526004361061004c576000357c0100000000000000000000000000000000000000000000000000000000900463ffffffff16806320db38ed1461005157806399418ee8146100e1575b600080fd5b34801561005d57600080fd5b50610066610128565b6040518080602001828103825283818151815260200191508051906020019080838360005b838110156100a657808201518184015260208101905061008b565b50505050905090810190601f1680156100d35780820380516001836020036101000a031916815260200191505b509250505060405180910390f35b3480156100ed57600080fd5b506101266004803603604081101561010457600080fd5b81019080803590602001909291908035151590602001909291905050506101c6565b005b60018054600181600116156101000203166002900480601f0160208091040260200160405190810160405280929190818152602001828054600181600116156101000203166002900480156101be5780601f10610193576101008083540402835291602001916101be565b820191906000526020600020905b8154815290600101906020018083116101a157829003601f168201915b505050505081565b6000548210806101d35750805b15610230576040805190810160405280600381526020017f4275790000000000000000000000000000000000000000000000000000000000815250600190805190602001906102239291906102ec565b50816000819055506102e8565b60005482118061023d5750805b1561029a576040805190810160405280600481526020017f53656c6c000000000000000000000000000000000000000000000000000000008152506001908051906020019061028d9291906102ec565b50816000819055506102e7565b6040805190810160405280600481526020017f486f6c6400000000000000000000000000000000000000000000000000000000815250600190805190602001906102e59291906102ec565b505b5b5050565b828054600181600116156101000203166002900490600052602060002090601f016020900481019282601f1061032d57805160ff191683800117855561035b565b8280016001018555821561035b579182015b8281111561035a57825182559160200191906001019061033f565b5b509050610368919061036c565b5090565b61038e91905b8082111561038a576000816000905550600101610372565b5090565b9056fea165627a7a72305820e2f8680b55691900030d1c01eada7a322067331e5c78e4979d56148dccaacfff0029",
					"opcodes": "PUSH1 0x80 PUSH1 0x40 MSTORE CALLVALUE DUP1 ISZERO PUSH2 0x10 JUMPI PUSH1 0x0 DUP1 REVERT JUMPDEST POP PUSH2 0x3BD DUP1 PUSH2 0x20 PUSH1 0x0 CODECOPY PUSH1 0x0 RETURN INVALID PUSH1 0x80 PUSH1 0x40 MSTORE PUSH1 0x4 CALLDATASIZE LT PUSH2 0x4C JUMPI PUSH1 0x0 CALLDATALOAD PUSH29 0x100000000000000000000000000000000000000000000000000000000 SWAP1 DIV PUSH4 0xFFFFFFFF AND DUP1 PUSH4 0x20DB38ED EQ PUSH2 0x51 JUMPI DUP1 PUSH4 0x99418EE8 EQ PUSH2 0xE1 JUMPI JUMPDEST PUSH1 0x0 DUP1 REVERT JUMPDEST CALLVALUE DUP1 ISZERO PUSH2 0x5D JUMPI PUSH1 0x0 DUP1 REVERT JUMPDEST POP PUSH2 0x66 PUSH2 0x128 JUMP JUMPDEST PUSH1 0x40 MLOAD DUP1 DUP1 PUSH1 0x20 ADD DUP3 DUP2 SUB DUP3 MSTORE DUP4 DUP2 DUP2 MLOAD DUP2 MSTORE PUSH1 0x20 ADD SWAP2 POP DUP1 MLOAD SWAP1 PUSH1 0x20 ADD SWAP1 DUP1 DUP4 DUP4 PUSH1 0x0 JUMPDEST DUP4 DUP2 LT ISZERO PUSH2 0xA6 JUMPI DUP1 DUP3 ADD MLOAD DUP2 DUP5 ADD MSTORE PUSH1 0x20 DUP2 ADD SWAP1 POP PUSH2 0x8B JUMP JUMPDEST POP POP POP POP SWAP1 POP SWAP1 DUP2 ADD SWAP1 PUSH1 0x1F AND DUP1 ISZERO PUSH2 0xD3 JUMPI DUP1 DUP3 SUB DUP1 MLOAD PUSH1 0x1 DUP4 PUSH1 0x20 SUB PUSH2 0x100 EXP SUB NOT AND DUP2 MSTORE PUSH1 0x20 ADD SWAP2 POP JUMPDEST POP SWAP3 POP POP POP PUSH1 0x40 MLOAD DUP1 SWAP2 SUB SWAP1 RETURN JUMPDEST CALLVALUE DUP1 ISZERO PUSH2 0xED JUMPI PUSH1 0x0 DUP1 REVERT JUMPDEST POP PUSH2 0x126 PUSH1 0x4 DUP1 CALLDATASIZE SUB PUSH1 0x40 DUP2 LT ISZERO PUSH2 0x104 JUMPI PUSH1 0x0 DUP1 REVERT JUMPDEST DUP2 ADD SWAP1 DUP1 DUP1 CALLDATALOAD SWAP1 PUSH1 0x20 ADD SWAP1 SWAP3 SWAP2 SWAP1 DUP1 CALLDATALOAD ISZERO ISZERO SWAP1 PUSH1 0x20 ADD SWAP1 SWAP3 SWAP2 SWAP1 POP POP POP PUSH2 0x1C6 JUMP JUMPDEST STOP JUMPDEST PUSH1 0x1 DUP1 SLOAD PUSH1 0x1 DUP2 PUSH1 0x1 AND ISZERO PUSH2 0x100 MUL SUB AND PUSH1 0x2 SWAP1 DIV DUP1 PUSH1 0x1F ADD PUSH1 0x20 DUP1 SWAP2 DIV MUL PUSH1 0x20 ADD PUSH1 0x40 MLOAD SWAP1 DUP2 ADD PUSH1 0x40 MSTORE DUP1 SWAP3 SWAP2 SWAP1 DUP2 DUP2 MSTORE PUSH1 0x20 ADD DUP3 DUP1 SLOAD PUSH1 0x1 DUP2 PUSH1 0x1 AND ISZERO PUSH2 0x100 MUL SUB AND PUSH1 0x2 SWAP1 DIV DUP1 ISZERO PUSH2 0x1BE JUMPI DUP1 PUSH1 0x1F LT PUSH2 0x193 JUMPI PUSH2 0x100 DUP1 DUP4 SLOAD DIV MUL DUP4 MSTORE SWAP2 PUSH1 0x20 ADD SWAP2 PUSH2 0x1BE JUMP JUMPDEST DUP3 ADD SWAP2 SWAP1 PUSH1 0x0 MSTORE PUSH1 0x20 PUSH1 0x0 KECCAK256 SWAP1 JUMPDEST DUP2 SLOAD DUP2 MSTORE SWAP1 PUSH1 0x1 ADD SWAP1 PUSH1 0x20 ADD DUP1 DUP4 GT PUSH2 0x1A1 JUMPI DUP3 SWAP1 SUB PUSH1 0x1F AND DUP3 ADD SWAP2 JUMPDEST POP POP POP POP POP DUP2 JUMP JUMPDEST PUSH1 0x0 SLOAD DUP3 LT DUP1 PUSH2 0x1D3 JUMPI POP DUP1 JUMPDEST ISZERO PUSH2 0x230 JUMPI PUSH1 0x40 DUP1 MLOAD SWAP1 DUP2 ADD PUSH1 0x40 MSTORE DUP1 PUSH1 0x3 DUP2 MSTORE PUSH1 0x20 ADD PUSH32 0x4275790000000000000000000000000000000000000000000000000000000000 DUP2 MSTORE POP PUSH1 0x1 SWAP1 DUP1 MLOAD SWAP1 PUSH1 0x20 ADD SWAP1 PUSH2 0x223 SWAP3 SWAP2 SWAP1 PUSH2 0x2EC JUMP JUMPDEST POP DUP2 PUSH1 0x0 DUP2 SWAP1 SSTORE POP PUSH2 0x2E8 JUMP JUMPDEST PUSH1 0x0 SLOAD DUP3 GT DUP1 PUSH2 0x23D JUMPI POP DUP1 JUMPDEST ISZERO PUSH2 0x29A JUMPI PUSH1 0x40 DUP1 MLOAD SWAP1 DUP2 ADD PUSH1 0x40 MSTORE DUP1 PUSH1 0x4 DUP2 MSTORE PUSH1 0x20 ADD PUSH32 0x53656C6C00000000000000000000000000000000000000000000000000000000 DUP2 MSTORE POP PUSH1 0x1 SWAP1 DUP1 MLOAD SWAP1 PUSH1 0x20 ADD SWAP1 PUSH2 0x28D SWAP3 SWAP2 SWAP1 PUSH2 0x2EC JUMP JUMPDEST POP DUP2 PUSH1 0x0 DUP2 SWAP1 SSTORE POP PUSH2 0x2E7 JUMP JUMPDEST PUSH1 0x40 DUP1 MLOAD SWAP1 DUP2 ADD PUSH1 0x40 MSTORE DUP1 PUSH1 0x4 DUP2 MSTORE PUSH1 0x20 ADD PUSH32 0x486F6C6400000000000000000000000000000000000000000000000000000000 DUP2 MSTORE POP PUSH1 0x1 SWAP1 DUP1 MLOAD SWAP1 PUSH1 0x20 ADD SWAP1 PUSH2 0x2E5 SWAP3 SWAP2 SWAP1 PUSH2 0x2EC JUMP JUMPDEST POP JUMPDEST JUMPDEST POP POP JUMP JUMPDEST DUP3 DUP1 SLOAD PUSH1 0x1 DUP2 PUSH1 0x1 AND ISZERO PUSH2 0x100 MUL SUB AND PUSH1 0x2 SWAP1 DIV SWAP1 PUSH1 0x0 MSTORE PUSH1 0x20 PUSH1 0x0 KECCAK256 SWAP1 PUSH1 0x1F ADD PUSH1 0x20 SWAP1 DIV DUP2 ADD SWAP3 DUP3 PUSH1 0x1F LT PUSH2 0x32D JUMPI DUP1 MLOAD PUSH1 0xFF NOT AND DUP4 DUP1 ADD OR DUP6 SSTORE PUSH2 0x35B JUMP JUMPDEST DUP3 DUP1 ADD PUSH1 0x1 ADD DUP6 SSTORE DUP3 ISZERO PUSH2 0x35B JUMPI SWAP2 DUP3 ADD JUMPDEST DUP3 DUP2 GT ISZERO PUSH2 0x35A JUMPI DUP3 MLOAD DUP3 SSTORE SWAP2 PUSH1 0x20 ADD SWAP2 SWAP1 PUSH1 0x1 ADD SWAP1 PUSH2 0x33F JUMP JUMPDEST JUMPDEST POP SWAP1 POP PUSH2 0x368 SWAP2 SWAP1 PUSH2 0x36C JUMP JUMPDEST POP SWAP1 JUMP JUMPDEST PUSH2 0x38E SWAP2 SWAP1 JUMPDEST DUP1 DUP3 GT ISZERO PUSH2 0x38A JUMPI PUSH1 0x0 DUP2 PUSH1 0x0 SWAP1 SSTORE POP PUSH1 0x1 ADD PUSH2 0x372 JUMP JUMPDEST POP SWAP1 JUMP JUMPDEST SWAP1 JUMP INVALID LOG1 PUSH6 0x627A7A723058 KECCAK256 0xe2 0xf8 PUSH9 0xB55691900030D1C01 0xea 0xda PUSH27 0x322067331E5C78E4979D56148DCCAACFFF00290000000000000000 "
				},
				"gasEstimates": {
					"creation": {
						"codeDepositCost": "191400",
						"executionCost": "232",
						"totalCost": "191632"
					},
					"external": {
						"makeTrade(uint256,bool)": "infinite",
						"tradeType()": "infinite"
					}
				},
				"methodIdentifiers": {
					"makeTrade(uint256,bool)": "99418ee8",
					"tradeType()": "20db38ed"
				}
			},
			"userdoc": {
				"methods": {}
			}
		}
	}
}