{
	"data": {
		"bytecode": {
			"linkReferences": {},
			"object": "608060405234801561001057600080fd5b50610284806100206000396000f3fe608060405260043610610041576000357c0100000000000000000000000000000000000000000000000000000000900463ffffffff16806399418ee814610046575b600080fd5b34801561005257600080fd5b5061008b6004803603604081101561006957600080fd5b810190808035906020019092919080351515906020019092919050505061008d565b005b60005482108061009a5750805b156100f7576040805190810160405280600381526020017f4275790000000000000000000000000000000000000000000000000000000000815250600190805190602001906100ea9291906101b3565b50816000819055506101af565b6000548211806101045750805b15610161576040805190810160405280600481526020017f53656c6c00000000000000000000000000000000000000000000000000000000815250600190805190602001906101549291906101b3565b50816000819055506101ae565b6040805190810160405280600481526020017f486f6c6400000000000000000000000000000000000000000000000000000000815250600190805190602001906101ac9291906101b3565b505b5b5050565b828054600181600116156101000203166002900490600052602060002090601f016020900481019282601f106101f457805160ff1916838001178555610222565b82800160010185558215610222579182015b82811115610221578251825591602001919060010190610206565b5b50905061022f9190610233565b5090565b61025591905b80821115610251576000816000905550600101610239565b5090565b9056fea165627a7a72305820b1bcdfa646a3ee2d2e24a2f2490f9e55f524e9d1cf0f2eae21a12558099e5e960029",
			"opcodes": "PUSH1 0x80 PUSH1 0x40 MSTORE CALLVALUE DUP1 ISZERO PUSH2 0x10 JUMPI PUSH1 0x0 DUP1 REVERT JUMPDEST POP PUSH2 0x284 DUP1 PUSH2 0x20 PUSH1 0x0 CODECOPY PUSH1 0x0 RETURN INVALID PUSH1 0x80 PUSH1 0x40 MSTORE PUSH1 0x4 CALLDATASIZE LT PUSH2 0x41 JUMPI PUSH1 0x0 CALLDATALOAD PUSH29 0x100000000000000000000000000000000000000000000000000000000 SWAP1 DIV PUSH4 0xFFFFFFFF AND DUP1 PUSH4 0x99418EE8 EQ PUSH2 0x46 JUMPI JUMPDEST PUSH1 0x0 DUP1 REVERT JUMPDEST CALLVALUE DUP1 ISZERO PUSH2 0x52 JUMPI PUSH1 0x0 DUP1 REVERT JUMPDEST POP PUSH2 0x8B PUSH1 0x4 DUP1 CALLDATASIZE SUB PUSH1 0x40 DUP2 LT ISZERO PUSH2 0x69 JUMPI PUSH1 0x0 DUP1 REVERT JUMPDEST DUP2 ADD SWAP1 DUP1 DUP1 CALLDATALOAD SWAP1 PUSH1 0x20 ADD SWAP1 SWAP3 SWAP2 SWAP1 DUP1 CALLDATALOAD ISZERO ISZERO SWAP1 PUSH1 0x20 ADD SWAP1 SWAP3 SWAP2 SWAP1 POP POP POP PUSH2 0x8D JUMP JUMPDEST STOP JUMPDEST PUSH1 0x0 SLOAD DUP3 LT DUP1 PUSH2 0x9A JUMPI POP DUP1 JUMPDEST ISZERO PUSH2 0xF7 JUMPI PUSH1 0x40 DUP1 MLOAD SWAP1 DUP2 ADD PUSH1 0x40 MSTORE DUP1 PUSH1 0x3 DUP2 MSTORE PUSH1 0x20 ADD PUSH32 0x4275790000000000000000000000000000000000000000000000000000000000 DUP2 MSTORE POP PUSH1 0x1 SWAP1 DUP1 MLOAD SWAP1 PUSH1 0x20 ADD SWAP1 PUSH2 0xEA SWAP3 SWAP2 SWAP1 PUSH2 0x1B3 JUMP JUMPDEST POP DUP2 PUSH1 0x0 DUP2 SWAP1 SSTORE POP PUSH2 0x1AF JUMP JUMPDEST PUSH1 0x0 SLOAD DUP3 GT DUP1 PUSH2 0x104 JUMPI POP DUP1 JUMPDEST ISZERO PUSH2 0x161 JUMPI PUSH1 0x40 DUP1 MLOAD SWAP1 DUP2 ADD PUSH1 0x40 MSTORE DUP1 PUSH1 0x4 DUP2 MSTORE PUSH1 0x20 ADD PUSH32 0x53656C6C00000000000000000000000000000000000000000000000000000000 DUP2 MSTORE POP PUSH1 0x1 SWAP1 DUP1 MLOAD SWAP1 PUSH1 0x20 ADD SWAP1 PUSH2 0x154 SWAP3 SWAP2 SWAP1 PUSH2 0x1B3 JUMP JUMPDEST POP DUP2 PUSH1 0x0 DUP2 SWAP1 SSTORE POP PUSH2 0x1AE JUMP JUMPDEST PUSH1 0x40 DUP1 MLOAD SWAP1 DUP2 ADD PUSH1 0x40 MSTORE DUP1 PUSH1 0x4 DUP2 MSTORE PUSH1 0x20 ADD PUSH32 0x486F6C6400000000000000000000000000000000000000000000000000000000 DUP2 MSTORE POP PUSH1 0x1 SWAP1 DUP1 MLOAD SWAP1 PUSH1 0x20 ADD SWAP1 PUSH2 0x1AC SWAP3 SWAP2 SWAP1 PUSH2 0x1B3 JUMP JUMPDEST POP JUMPDEST JUMPDEST POP POP JUMP JUMPDEST DUP3 DUP1 SLOAD PUSH1 0x1 DUP2 PUSH1 0x1 AND ISZERO PUSH2 0x100 MUL SUB AND PUSH1 0x2 SWAP1 DIV SWAP1 PUSH1 0x0 MSTORE PUSH1 0x20 PUSH1 0x0 KECCAK256 SWAP1 PUSH1 0x1F ADD PUSH1 0x20 SWAP1 DIV DUP2 ADD SWAP3 DUP3 PUSH1 0x1F LT PUSH2 0x1F4 JUMPI DUP1 MLOAD PUSH1 0xFF NOT AND DUP4 DUP1 ADD OR DUP6 SSTORE PUSH2 0x222 JUMP JUMPDEST DUP3 DUP1 ADD PUSH1 0x1 ADD DUP6 SSTORE DUP3 ISZERO PUSH2 0x222 JUMPI SWAP2 DUP3 ADD JUMPDEST DUP3 DUP2 GT ISZERO PUSH2 0x221 JUMPI DUP3 MLOAD DUP3 SSTORE SWAP2 PUSH1 0x20 ADD SWAP2 SWAP1 PUSH1 0x1 ADD SWAP1 PUSH2 0x206 JUMP JUMPDEST JUMPDEST POP SWAP1 POP PUSH2 0x22F SWAP2 SWAP1 PUSH2 0x233 JUMP JUMPDEST POP SWAP1 JUMP JUMPDEST PUSH2 0x255 SWAP2 SWAP1 JUMPDEST DUP1 DUP3 GT ISZERO PUSH2 0x251 JUMPI PUSH1 0x0 DUP2 PUSH1 0x0 SWAP1 SSTORE POP PUSH1 0x1 ADD PUSH2 0x239 JUMP JUMPDEST POP SWAP1 JUMP JUMPDEST SWAP1 JUMP INVALID LOG1 PUSH6 0x627A7A723058 KECCAK256 0xb1 0xbc 0xdf 0xa6 0x46 LOG3 0xee 0x2d 0x2e 0x24 LOG2 CALLCODE 0x49 0xf SWAP15 SSTORE CREATE2 0x24 0xe9 0xd1 0xcf 0xf 0x2e 0xae 0x21 LOG1 0x25 PC MULMOD SWAP15 0x5e SWAP7 STOP 0x29 "
		},
		"gasEstimates": {
			"creation": {
				"codeDepositCost": "128800",
				"executionCost": "177",
				"totalCost": "128977"
			},
			"external": {
				"makeTrade(uint256,bool)": "infinite"
			}
		},
		"methodIdentifiers": {
			"makeTrade(uint256,bool)": "99418ee8"
		}
	},
	"abi": [
		{
			"constant": false,
			"inputs": [
				{
					"name": "currentPrice",
					"type": "uint256"
				},
				{
					"name": "buyAnyway",
					"type": "bool"
				}
			],
			"name": "makeTrade",
			"outputs": [],
			"payable": false,
			"stateMutability": "nonpayable",
			"type": "function"
		}
	]
}